{
  "contractName": "Splitter",
  "abi": [
    {
      "constant": true,
      "inputs": [
        {
          "name": "",
          "type": "address"
        }
      ],
      "name": "balanceOf",
      "outputs": [
        {
          "name": "",
          "type": "uint256"
        }
      ],
      "payable": false,
      "stateMutability": "view",
      "type": "function",
      "signature": "0x70a08231"
    },
    {
      "constant": true,
      "inputs": [],
      "name": "carol",
      "outputs": [
        {
          "name": "",
          "type": "address"
        }
      ],
      "payable": false,
      "stateMutability": "view",
      "type": "function",
      "signature": "0x8b930f15"
    },
    {
      "constant": true,
      "inputs": [],
      "name": "bob",
      "outputs": [
        {
          "name": "",
          "type": "address"
        }
      ],
      "payable": false,
      "stateMutability": "view",
      "type": "function",
      "signature": "0xc09cec77"
    },
    {
      "constant": true,
      "inputs": [],
      "name": "alice",
      "outputs": [
        {
          "name": "",
          "type": "address"
        }
      ],
      "payable": false,
      "stateMutability": "view",
      "type": "function",
      "signature": "0xfb47e3a2"
    },
    {
      "inputs": [
        {
          "name": "bobAddress",
          "type": "address"
        },
        {
          "name": "carolAddress",
          "type": "address"
        }
      ],
      "payable": false,
      "stateMutability": "nonpayable",
      "type": "constructor",
      "signature": "constructor"
    },
    {
      "anonymous": false,
      "inputs": [
        {
          "indexed": true,
          "name": "remainder",
          "type": "uint256"
        },
        {
          "indexed": true,
          "name": "claimable",
          "type": "bool"
        }
      ],
      "name": "LogRemainderClaimable",
      "type": "event",
      "signature": "0x83a30f2d73036bef73a6adec404afcd017c498e12a7b7f7e31eb7097d2f411f8"
    },
    {
      "constant": true,
      "inputs": [],
      "name": "getContractBalance",
      "outputs": [
        {
          "name": "contractBalance",
          "type": "uint256"
        }
      ],
      "payable": false,
      "stateMutability": "view",
      "type": "function",
      "signature": "0x6f9fb98a"
    },
    {
      "constant": false,
      "inputs": [],
      "name": "splitEther",
      "outputs": [],
      "payable": true,
      "stateMutability": "payable",
      "type": "function",
      "signature": "0x502b31d2"
    },
    {
      "constant": false,
      "inputs": [],
      "name": "withdraw",
      "outputs": [
        {
          "name": "success",
          "type": "bool"
        }
      ],
      "payable": false,
      "stateMutability": "nonpayable",
      "type": "function",
      "signature": "0x3ccfd60b"
    },
    {
      "constant": false,
      "inputs": [],
      "name": "claimRemainder",
      "outputs": [
        {
          "name": "success",
          "type": "bool"
        }
      ],
      "payable": false,
      "stateMutability": "nonpayable",
      "type": "function",
      "signature": "0x212abe5b"
    }
  ],
  "bytecode": "0x608060405234801561001057600080fd5b506040516040806111888339810180604052604081101561003057600080fd5b81019080805190602001909291908051906020019092919050505033600160006101000a81548173ffffffffffffffffffffffffffffffffffffffff021916908373ffffffffffffffffffffffffffffffffffffffff16021790555081600260006101000a81548173ffffffffffffffffffffffffffffffffffffffff021916908373ffffffffffffffffffffffffffffffffffffffff1602179055506000806000600260009054906101000a900473ffffffffffffffffffffffffffffffffffffffff1673ffffffffffffffffffffffffffffffffffffffff1673ffffffffffffffffffffffffffffffffffffffff1681526020019081526020016000208190555080600360006101000a81548173ffffffffffffffffffffffffffffffffffffffff021916908373ffffffffffffffffffffffffffffffffffffffff1602179055506000806000600360009054906101000a900473ffffffffffffffffffffffffffffffffffffffff1673ffffffffffffffffffffffffffffffffffffffff1673ffffffffffffffffffffffffffffffffffffffff168152602001908152602001600020819055505050610f9d806101eb6000396000f3fe60806040526004361061008e576000357c0100000000000000000000000000000000000000000000000000000000900463ffffffff168063212abe5b146100935780633ccfd60b146100c2578063502b31d2146100f15780636f9fb98a146100fb57806370a08231146101265780638b930f151461018b578063c09cec77146101e2578063fb47e3a214610239575b600080fd5b34801561009f57600080fd5b506100a8610290565b604051808215151515815260200191505060405180910390f35b3480156100ce57600080fd5b506100d7610564565b604051808215151515815260200191505060405180910390f35b6100f9610aec565b005b34801561010757600080fd5b50610110610da7565b6040518082815260200191505060405180910390f35b34801561013257600080fd5b506101756004803603602081101561014957600080fd5b81019080803573ffffffffffffffffffffffffffffffffffffffff169060200190929190505050610dc6565b6040518082815260200191505060405180910390f35b34801561019757600080fd5b506101a0610dde565b604051808273ffffffffffffffffffffffffffffffffffffffff1673ffffffffffffffffffffffffffffffffffffffff16815260200191505060405180910390f35b3480156101ee57600080fd5b506101f7610e04565b604051808273ffffffffffffffffffffffffffffffffffffffff1673ffffffffffffffffffffffffffffffffffffffff16815260200191505060405180910390f35b34801561024557600080fd5b5061024e610e2a565b604051808273ffffffffffffffffffffffffffffffffffffffff1673ffffffffffffffffffffffffffffffffffffffff16815260200191505060405180910390f35b6000600260009054906101000a900473ffffffffffffffffffffffffffffffffffffffff1673ffffffffffffffffffffffffffffffffffffffff163373ffffffffffffffffffffffffffffffffffffffff16148061033b5750600360009054906101000a900473ffffffffffffffffffffffffffffffffffffffff1673ffffffffffffffffffffffffffffffffffffffff163373ffffffffffffffffffffffffffffffffffffffff16145b15156103d5576040517f08c379a000000000000000000000000000000000000000000000000000000000815260040180806020018281038252603d8152602001807f596f7520646f6e2774206861766520746865206e65636573736172792070657281526020017f6d697373696f6e20746f2063616c6c20746869732066756e6374696f6e00000081525060400191505060405180910390fd5b60006004541180156103f3575060006103f16004546002610e50565b145b1515610467576040517f08c379a00000000000000000000000000000000000000000000000000000000081526004018080602001828103825260168152602001807f4e6f2072656d61696e64657220636c61696d61626c650000000000000000000081525060200191505060405180910390fd5b60006104766004546002610ede565b9050600060048190555080600080600360009054906101000a900473ffffffffffffffffffffffffffffffffffffffff1673ffffffffffffffffffffffffffffffffffffffff1673ffffffffffffffffffffffffffffffffffffffff1681526020019081526020016000206000828254019250508190555080600080600260009054906101000a900473ffffffffffffffffffffffffffffffffffffffff1673ffffffffffffffffffffffffffffffffffffffff1673ffffffffffffffffffffffffffffffffffffffff16815260200190815260200160002060008282540192505081905550600191505090565b6000600260009054906101000a900473ffffffffffffffffffffffffffffffffffffffff1673ffffffffffffffffffffffffffffffffffffffff163373ffffffffffffffffffffffffffffffffffffffff16148061060f5750600360009054906101000a900473ffffffffffffffffffffffffffffffffffffffff1673ffffffffffffffffffffffffffffffffffffffff163373ffffffffffffffffffffffffffffffffffffffff16145b15156106a9576040517f08c379a000000000000000000000000000000000000000000000000000000000815260040180806020018281038252603d8152602001807f596f7520646f6e2774206861766520746865206e65636573736172792070657281526020017f6d697373696f6e20746f2063616c6c20746869732066756e6374696f6e00000081525060400191505060405180910390fd5b60008060003373ffffffffffffffffffffffffffffffffffffffff1673ffffffffffffffffffffffffffffffffffffffff1681526020019081526020016000205411151561075f576040517f08c379a00000000000000000000000000000000000000000000000000000000081526004018080602001828103825260118152602001807f596f75722062616c616e6365206973203000000000000000000000000000000081525060200191505060405180910390fd5b600260009054906101000a900473ffffffffffffffffffffffffffffffffffffffff1673ffffffffffffffffffffffffffffffffffffffff163373ffffffffffffffffffffffffffffffffffffffff1614156108ed57600260009054906101000a900473ffffffffffffffffffffffffffffffffffffffff1673ffffffffffffffffffffffffffffffffffffffff166108fc600080600260009054906101000a900473ffffffffffffffffffffffffffffffffffffffff1673ffffffffffffffffffffffffffffffffffffffff1673ffffffffffffffffffffffffffffffffffffffff168152602001908152602001600020549081150290604051600060405180830381858888f1935050505015801561087d573d6000803e3d6000fd5b506000806000600260009054906101000a900473ffffffffffffffffffffffffffffffffffffffff1673ffffffffffffffffffffffffffffffffffffffff1673ffffffffffffffffffffffffffffffffffffffff1681526020019081526020016000208190555060019050610ae9565b600360009054906101000a900473ffffffffffffffffffffffffffffffffffffffff1673ffffffffffffffffffffffffffffffffffffffff163373ffffffffffffffffffffffffffffffffffffffff161415610a7b57600360009054906101000a900473ffffffffffffffffffffffffffffffffffffffff1673ffffffffffffffffffffffffffffffffffffffff166108fc600080600360009054906101000a900473ffffffffffffffffffffffffffffffffffffffff1673ffffffffffffffffffffffffffffffffffffffff1673ffffffffffffffffffffffffffffffffffffffff168152602001908152602001600020549081150290604051600060405180830381858888f19350505050158015610a0b573d6000803e3d6000fd5b506000806000600360009054906101000a900473ffffffffffffffffffffffffffffffffffffffff1673ffffffffffffffffffffffffffffffffffffffff1673ffffffffffffffffffffffffffffffffffffffff1681526020019081526020016000208190555060019050610ae9565b6040517f08c379a000000000000000000000000000000000000000000000000000000000815260040180806020018281038252600f8152602001807f5769746864726177206661696c6564000000000000000000000000000000000081525060200191505060405180910390fd5b90565b3373ffffffffffffffffffffffffffffffffffffffff16600160009054906101000a900473ffffffffffffffffffffffffffffffffffffffff1673ffffffffffffffffffffffffffffffffffffffff16141515610bb1576040517f08c379a00000000000000000000000000000000000000000000000000000000081526004018080602001828103825260098152602001807f6e6f74206f776e6572000000000000000000000000000000000000000000000081525060200191505060405180910390fd5b600034111515610c4f576040517f08c379a00000000000000000000000000000000000000000000000000000000081526004018080602001828103825260338152602001807f596f752063616e6e6f742073656e642061207472616e73616374696f6e20776981526020017f74682076616c756520657175616c20746f20300000000000000000000000000081525060400191505060405180910390fd5b6000610c5c346002610ede565b905060028102341115610cc8576002810234036004600082825401925050819055506000610c8d6004546002610e50565b1415610cc757600115156004547f83a30f2d73036bef73a6adec404afcd017c498e12a7b7f7e31eb7097d2f411f860405160405180910390a35b5b80600080600260009054906101000a900473ffffffffffffffffffffffffffffffffffffffff1673ffffffffffffffffffffffffffffffffffffffff1673ffffffffffffffffffffffffffffffffffffffff1681526020019081526020016000206000828254019250508190555080600080600360009054906101000a900473ffffffffffffffffffffffffffffffffffffffff1673ffffffffffffffffffffffffffffffffffffffff1673ffffffffffffffffffffffffffffffffffffffff1681526020019081526020016000206000828254019250508190555050565b60003073ffffffffffffffffffffffffffffffffffffffff1631905090565b60006020528060005260406000206000915090505481565b600360009054906101000a900473ffffffffffffffffffffffffffffffffffffffff1681565b600260009054906101000a900473ffffffffffffffffffffffffffffffffffffffff1681565b600160009054906101000a900473ffffffffffffffffffffffffffffffffffffffff1681565b6000808214151515610eca576040517f08c379a00000000000000000000000000000000000000000000000000000000081526004018080602001828103825260188152602001807f536166654d6174683a206d6f64756c6f206279207a65726f000000000000000081525060200191505060405180910390fd5b8183811515610ed557fe5b06905092915050565b60008082111515610f57576040517f08c379a000000000000000000000000000000000000000000000000000000000815260040180806020018281038252601a8152602001807f536166654d6174683a206469766973696f6e206279207a65726f00000000000081525060200191505060405180910390fd5b60008284811515610f6457fe5b049050809150509291505056fea165627a7a72305820dfb964c29d2bc32888317b09b61af7f70d41d53109dd3ffd011698802881849d0029",
  "source": "pragma solidity >=0.4.21 <0.6.0;\n\nimport { SafeMath } from './SafeMath.sol';\n\n\n/// @title Splitter - Split payments to two parties 50/50\n/// @author hilmarx\n/// @notice You can use this contract to split up payments equally among two pre-defined parties\n/// @dev This is a test version, please don't use in production\n\ncontract Splitter {\n\n    // State variables\n\n    // balance of alice, bob & carol\n    mapping (address => uint) public balanceOf;\n\n    // Get Alice address\n    address public alice;\n    // Get Bobs Balance\n    address payable public bob;\n    // Get Carols Balance\n    address payable public carol;\n    // Remainder balance for updating potential claims for carol and bob\n    uint remainder;\n\n    // Events\n    // Show that either Carol or Bob can claim the accumulated remainder for both of them\n    event LogRemainderClaimable(uint indexed remainder, bool indexed claimable);\n\n    // Modifiers\n    ///@dev Check if message sender is Alice\n    modifier isAlice() {\n        require(alice == msg.sender, \"not owner\");\n        _;\n    }\n    \n    ///@dev Check if message sender is either Bob or Carol\n    modifier isBobOrCarol() {\n        require(msg.sender == bob || msg.sender == carol, \"You don't have the necessary permission to call this function\");\n        _;\n    }\n    \n    ///@dev Check if message sender (Bob or Carol) have any balance which can be withdrawn\n    modifier sufficientBalance() {\n        require(balanceOf[msg.sender] > 0, \"Your balance is 0\");\n        _;\n    }\n    \n    ///@dev Check if the contract instance 1) has any remainder and 2) if it is divisible by 2, ie. claimable by Carol or Bob\n    modifier remainderCheck() {\n        require(remainder > 0 && SafeMath.mod(remainder, 2) == 0, \"No remainder claimable\");\n        _;\n    }\n    \n    ///@dev Check that Alice is not sending a message with value 0 to a payable method\n    modifier nonZero() {\n        require(msg.value > 0, \"You cannot send a transaction with value equal to 0\");\n        _;\n    }\n    \n    //@dev Constructor setting addresses & balances of Alice, Bob & Carol, where alice is the owner\n    constructor(address payable bobAddress, address payable carolAddress) public {\n        alice = msg.sender;\n        bob = bobAddress;\n        balanceOf[bob] = 0;\n        carol = carolAddress;\n        balanceOf[carol] = 0;\n    }\n\n    // Getter Functions\n    \n    // @dev Return the ether balance of the contract instance\n    function getContractBalance()\n        public\n        view\n        returns (uint contractBalance)\n    {\n        return address(this).balance;\n    }\n    \n    /*\n    ///@dev Get alice ether balance\n    function getAliceBalance()\n        public\n        view\n        returns (uint aliceBalance)\n    {\n        return alice.balance;\n    }\n    */\n    \n    // Setter Functions\n\n    ///@dev Split ether sent by Alice into two equal pices and add them to Carols and Bobs inherent balance, equally.\n    ///@dev If ether amount cannot be divided by two, store remainder in the 'remainder' state variable\n    ///@dev If the ether stored in the remainder state variable is again divisible by 2, emit an event\n    function splitEther() \n        public\n        isAlice\n        payable\n        nonZero\n    {       \n        uint payout = SafeMath.div(msg.value, 2);\n        // Check if remainer exists, if yes update remainder\n        if (msg.value > payout * 2) {\n            remainder += msg.value - (payout * 2);\n            // If remainder is divisible by two, trigger event that remainder exists & is claimable\n            if (SafeMath.mod(remainder, 2) == 0) { emit LogRemainderClaimable(remainder, true); }\n            \n        }\n        balanceOf[bob] += payout;\n        balanceOf[carol] += payout;\n    }\n    \n    ///@dev Enable Bob & Carol to withdraw the value of their contracts balance\n    function withdraw() \n        public\n        isBobOrCarol\n        sufficientBalance\n        returns (bool success)\n    {\n        if (msg.sender == bob) \n        {\n            bob.transfer(balanceOf[bob]);\n            balanceOf[bob] = 0;\n            return true;\n        } \n        else if (msg.sender == carol) \n        {\n            carol.transfer(balanceOf[carol]);\n            balanceOf[carol] = 0;\n            return true;\n        }\n        else {\n            revert(\"Withdraw failed\");\n        }\n    }\n    \n    ///@dev Enable Carol or Bob to add the ether stored in the 'remainder' state variable to be added equally to their contract balances\n    ///@dev Only callable if remainder is equally divisible by 2\n    function claimRemainder() \n        public\n        isBobOrCarol\n        remainderCheck\n        returns (bool success)\n    {\n        // Split existing remainder in two\n        uint evenPayout = SafeMath.div(remainder, 2);\n        // Set remainder to 0;\n        remainder = 0;\n        // update carols and bobs balance\n        balanceOf[carol] += evenPayout;\n        balanceOf[bob] += evenPayout;\n        // Return true to signal successful update\n        return true;\n    }\n}",
  "sourcePath": "/Users/Hilmar/code/tutorials/b9lab/splitter/contracts/Splitter.sol",
  "compiler": {
    "name": "solc",
    "version": "0.5.0+commit.1d4f565a.Emscripten.clang"
  },
  "schemaVersion": "3.0.8",
  "updatedAt": "2019-05-24T15:21:14.221Z",
  "devdoc": {
    "author": "hilmarx",
    "details": "This is a test version, please don't use in production",
    "methods": {
      "claimRemainder()": {
        "details": "Enable Carol or Bob to add the ether stored in the 'remainder' state variable to be added equally to their contract balancesOnly callable if remainder is equally divisible by 2"
      },
      "splitEther()": {
        "details": "Split ether sent by Alice into two equal pices and add them to Carols and Bobs inherent balance, equally.If ether amount cannot be divided by two, store remainder in the 'remainder' state variableIf the ether stored in the remainder state variable is again divisible by 2, emit an event"
      },
      "withdraw()": {
        "details": "Enable Bob & Carol to withdraw the value of their contracts balance"
      }
    },
    "title": "Splitter - Split payments to two parties 50/50"
  },
  "userdoc": {
    "methods": {},
    "notice": "You can use this contract to split up payments equally among two pre-defined parties"
  }
}